:100000000C945D160C948E160C948E160C948E1611
:100010000C948E160C948E160C948E160C948E16D0
:100020000C948E160C948E160C948E160C948E16C0
:100030000C948E160C948E160C948E160C948E16B0
:100040000C948E160C940CB30C948E160C948E1685
:100050000C948E160C948E160C9497640C94066B6C
:100060000C948E160C944C530C948E160C948E1685
:100070000C948E160C948E160C948E160C948E1670
:100080000C948E160C948E160C948E160C948E1660
:100090000C948E160C948E160C948E160C948E1650
:1000A0000C948E160C948E160C948E160C948E1640
:1000B0000C948E160C948E160C948E160C948E1630
:1000C0000C948E160C948E160C948E160C948E1620
:1000D0000C948E160C948E160C948E160C948E1610
:1000E0000C948E1642694569346938693E697C69A9
:1000F00049694D69536957695B69616965696969EE
:100100007C696F6973697769226A276A2C6A366A23
:10011000406AB96A4A6A526A5A6A646A6E6A786A56
:10012000876A916AB96A9B6AA56AAF6A084AD73B2F
:100130003BCE016E84BCBFFDC12F3D6C74319ABDB6
:1001400056833DDA3D00C77F11BED9E4BB4C3E91DA
:100150006BAAAABE000000803F05A84CCDB2D44EC9
:10016000B93836A9020C50B9918688083CA6AAAACB
:100170002ABE000000803F000D94080A0D949D09DE
:100180004E414E494E495459494E46CDCCCC3D0A7C
:10019000D7233C17B7D13877CC2B329595E6241F5F
:1001A000B14F0A000020410000C84200401C462018
:1001B000BCBE4CCA1B0E5AAEC59D74434F4D4D5527
:1001C0004E49434154494F4E0044525952554E00F6
:1001D0004552524F525300494E464F004543484FF7
:1001E0000047322F47332062616420706172616D75
:1001F00065746572730A00536C6565702E2E2E004F
:10020000205A3A200020593A200042656420583A8A
:1002100020004D65736820706F696E742063616E95
:100220006E6F74206265207265736F6C7665640A08
:1002300000526573756D696E67207072696E740027
:10024000416E79637562696344656C74612B2072D9
:10025000656164792E00436C69636B20746F207252
:100260006573756D652E2E2E004E6F206D6F766551
:100270002E00456E642066696C65206C6973740A93
:1002800000426567696E2066696C65206C697374ED
:100290000A005344207072696E74696E6720627937
:1002A000746520004E6F74205344207072696E7420
:1002B000696E670A0046696C652064656C657465E3
:1002C000643A0044656C6574696F6E206661696CA0
:1002D00065642C2046696C653A20006F70656E205D
:1002E0006661696C65642C2046696C653A2000255E
:1002F00069730025696D20256973002569682025CB
:10030000696D2025697300256964202569682025A9
:10031000696D202569730025697920256964202588
:1003200069682025696D20256973005072696E74B3
:100330002074696D653A20000001363726FF023CC3
:100340003D38FF0F2E303E1213FF0C0809FFFFFF50
:100350001A1C18FFFF08440A2C43FFFFFFFFFFFF92
:1003600050726F7465637465642050696E0A00454D
:10037000256920257300416E796375626963446560
:100380006C74612B2072656164792E00DC01D701E9
:10039000D001C901BB016F66660044454255473A2A
:1003A000004B494C4C45442E20004D3131332053F5
:1003B000006F6B0048656174696E6720646F6E65DD
:1003C0002E0020573A0045256920257300416E799B
:1003D000637562696344656C74612B207265616446
:1003E000792E0042656420646F6E652E0020573AB6
:1003F000004265642048656174696E672E00416E35
:1004000079637562696344656C74612B204F66661D
:100410002E00454D455247454E43595F504152537A
:10042000455200434153455F4C494748545F42524F
:10043000494748544E45535300544F47474C455F36
:100440004C494748545300534F4654574152455F17
:10045000504F574552004255494C445F5045524316
:10046000454E54004C4556454C494E475F44415417
:1004700041005A5F50524F4245004155544F4C4540
:1004800056454C005052494E545F4A4F420050521C
:100490004F4752455353004155544F5245504F52C8
:1004A000545F54454D5000564F4C554D455452499C
:1004B0004300454550524F4D0053455249414C5F12
:1004C000584F4E5F584F4646004649524D5741528D
:1004D000455F4E414D453A4D61726C696E20312E3B
:1004E000312E3820284769746875622920534F558A
:1004F0005243455F434F44455F55524C3A687474CC
:1005000070733A2F2F6769746875622E636F6D2F51
:100510004D61726C696E4669726D776172652F4DBF
:1005200061726C696E2050524F544F434F4C5F566E
:10053000455253494F4E3A312E30204D41434849A0
:100540004E455F545950453A416E7963756269630F
:1005500044656C74612B2045585452554445525F94
:10056000434F554E543A3120555549443A636564DA
:1005700065326132662D343161322D343734382D95
:10058000396231322D63353563363266333637663C
:10059000660A002F2F20007A5F6D61783A20007A7A
:1005A0005F6D696E3A2000795F6D61783A2000785E
:1005B0005F6D61783A20005265706F7274696E6782
:1005C00020656E6473746F70207374617475730A40
:1005D000004D31343520533C696E6465783E206FA0
:1005E0007574206F662072616E67652028302D312A
:1005F000290A0043290A0061626C656420286D693C
:100600006E2074656D702000436F6C642065787493
:100610007275646573206172652000236465666984
:100620006E65202044454641554C545F4B64200084
:1006300023646566696E65202044454641554C54E7
:100640005F4B69200023646566696E652020444520
:100650004641554C545F4B70200050494420417531
:10066000746F74756E652066696E69736865642160
:100670002050757420746865206C617374204B7011
:100680002C204B6920616E64204B6420636F6E7375
:1006900074616E74732066726F6D2062656C6F7723
:1006A00020696E746F20436F6E666967757261743E
:1006B000696F6E2E680A00504944204175746F744A
:1006C000756E65206661696C6564212074696D656D
:1006D0006F75740A00544845524D414C2052554E96
:1006E0004157415900546865726D616C2052756EB6
:1006F000617761790048656174696E672066616938
:100700006C65640048656174696E67206661696C38
:10071000656400504944204175746F74756E65209E
:100720006661696C6564212054656D7065726174E1
:1007300075726520746F6F20686967680A00204BC6
:10074000643A2000204B693A2000204B703A200088
:100750000A20436C617373696320504944200A0086
:100760002054753A2000204B753A2000206D6178A6
:100770003A2000206D696E3A200020643A20002063
:10078000626961733A2000426564204C6576656C4D
:10079000696E6720004661696C656420746F20652E
:1007A0006E61626C6520426564204C6576656C699B
:1007B0006E670A004D65736820706F696E74206300
:1007C000616E6E6F74206265207265736F6C766502
:1007D000640A004D34323120696E636F7272656352
:1007E0007420706172616D657465722075736167E4
:1007F000650A003A2000207A5F6D696E3A20202D4C
:100800003430207A5F6D61783A202032300A00500F
:10081000726F6265205A204F6666736574004E6F72
:100820002063617365206C696768740A00416374B2
:100830006976652045787472756465723A20005552
:100840006E6B6E6F776E20636F6D6D616E643A20B4
:100850002200436F70792074686573652076616C3F
:1008600075657320746F20436F6E6669677572617A
:1008700074696F6E2E680020415F464143544F52A9
:100880003A200020525F464143544F523A200048DC
:100890005F464143544F523A200054756E696E676B
:1008A00020540054756E696E6720520054756E694D
:1008B0006E672045004155544F2054554E452062E7
:1008C0006173656C696E6500253033692E78003080
:1008D0002E25303369002073643A007374642064F9
:1008E00065763A00737464206465763A004E6F2032
:1008F000636F6E76657267656E63650049746572D5
:100900006174696F6E203A20253032690053617638
:10091000652077697468204D35303020616E642F12
:100920006F7220636F707920746F20436F6E6669F9
:100930006775726174696F6E2E6800253033692E99
:100940007800302E253033690043616C6962726132
:1009500074696F6E2073643A00726F6C6C696E67B5
:10096000206261636B2E00737464206465763A00C4
:1009700043616C6962726174696F6E204F4B004510
:100980006E64204452592D52554E00436F72726569
:1009900063742064656C74615F726164697573204F
:1009A00077697468204D3636352052206F72206585
:1009B0006E642D73746F70732077697468204D3680
:1009C000363620582059205A0020284452592D529A
:1009D000554E2900436865636B696E672E2E2E2085
:1009E0004143003F284D3636352042296564207248
:1009F000616469757320697320696D706C617573CA
:100A000069626C652E0A00473333204175746F208C
:100A100043616C6962726174650A003F2846296F00
:100A200072636520697465726174696F6E206973A1
:100A300020696D706C61757369626C652028302D5A
:100A40003330292E0A003F284329616C69627261A4
:100A500074696F6E20707265636973696F6E206967
:100A60007320696D706C61757369626C6520283ED6
:100A70003D30292E0A003F2856296572626F736542
:100A8000206C6576656C20697320696D706C61758A
:100A90007369626C652028302D33292E0A003F28A7
:100AA00050296F696E747320697320696D706C6171
:100AB000757369626C652028302D3130292E0A004B
:100AC0004C696E65204E756D626572206973206E8B
:100AD0006F74204C617374204C696E65204E756D87
:100AE0006265722B312C204C617374204C696E65E9
:100AF0003A20004B494C4C45442E200053544F5053
:100B00005045442E20005072696E746572207374D3
:100B10006F707065642064756520746F20657272F3
:100B20006F72732E20466978207468652065727232
:100B30006F7220616E6420757365204D39393920DC
:100B4000746F20726573746172742E202854656D01
:100B50007065726174757265206973207265736562
:100B6000742E205365742069742061667465722048
:100B700072657374617274696E67290A004E6F2022
:100B8000436865636B73756D2077697468206C6961
:100B90006E65206E756D6265722C204C61737420D9
:100BA0004C696E653A2000636865636B73756D20F0
:100BB0006D69736D617463682C204C617374204C93
:100BC000696E653A20004D313130004D33310053AC
:100BD000442072656164206572726F720A00446F0E
:100BE0006E65207072696E74696E672066696C65E7
:100BF0000A0020496E76616C6964206578747275AC
:100C000064657220000000DCC20000DCC20000004D
:100C1000000000DC420000DC42008090434572721C
:100C20006F722077726974696E6720746F20454512
:100C300050524F4D210A00290A00206279746573D1
:100C40003B20637263200053657474696E67732080
:100C500053746F7265642028002CFFFFFFFF0001B2
:100C60000101016265640A002C2073797374656D5B
:100C70002073746F707065642120486561746572BB
:100C80005F49443A200048656174696E6720666177
:100C9000696C65640048656174696E6720666169A6
:100CA0006C65640048656174696E67206661696C93
:100CB00065640048656174696E67206661696C658A
:100CC000640070012C0190012701B0012201C001D4
:100CD0001D01F00118011002130130020E01600223
:100CE000090190020401C002FF000003FA00400362
:100CF000F5008003F000D003EB002004E600700450
:100D0000E100E004DC004005D700C005D200400649
:100D1000CD00D006C8008007C3003008BE00F00830
:100D2000B900C009B400B00AAF00B00BAA00D00CE3
:100D3000A500000EA000500F9B00C010960050129E
:100D4000910000148C00C0158700B0178200B01904
:100D50007D00D01B7800001E730040206E009022A2
:100D60006900F024640040275F0090295A00E02BBE
:100D70005500102E500020304B0010324600E0335A
:100D8000410090353C001037370070383200A039F0
:100D90002D00B03A2800A03B2300603C1E00103D0F
:100DA0001900903D1400103E0F00703E0A00C03E36
:100DB0000500003F0000403FFBFF803FF6FFC03FC3
:100DC000F1FF544845524D414C2052554E41574138
:100DD0005900546865726D616C2052756E6177615F
:100DE00079004572723A204D494E54454D5020428B
:100DF0004544004572723A204D494E54454D5000CD
:100E00004D494E54454D502074726967676572654F
:100E100064004572723A204D415854454D5020426D
:100E20004544004572723A204D415854454D50009A
:100E30004D415854454D502074726967676572651D
:100E40006400202F002042403A0020403A00000079
:100E50000000010204040000001C1C0C0404040235
:100E60000100000000000408100000000000001C49
:100E70001F11111F00000006191803130C00040EA7
:100E80001F041C000000000E1315110E00001C10A2
:100E9000181705060500040A0A0A0A11110E0C1299
:100EA000120C00000000001F1511151F0000436107
:100EB00072642072656D6F766564004361726420B0
:100EC000696E736572746564000000210024002758
:100ED000002A002D0030003300010100000401074A
:100EE000010A0100002200250028002B002E0031FD
:100EF00000340002010000050108010B01534420E9
:100F000063617264206F6B0A006F70656E526F6F61
:100F100074206661696C65640A00766F6C756D6536
:100F20002E696E6974206661696C65640A005344B9
:100F300020696E6974206661696C0A006175746F5E
:100F400025692E67004D3234004D32332025730061
:100F500057726974696E6720746F2066696C653AB0
:100F600020006F70656E206661696C65642C204698
:100F7000696C653A20006F70656E206661696C650A
:100F8000642C2046696C653A200046696C652073C4
:100F9000656C65637465640A002053697A653A205C
:100FA0000046696C65206F70656E65643A20006F5D
:100FB00070656E206661696C65642C2046696C659D
:100FC0003A20002066696C653A2000646F696E679C
:100FD000006672657368004E6F772000454E4420AE
:100FE000535542524F5554494E450A002220706FC6
:100FF00073002220706172656E743A22005355426C
:10100000524F5554494E452043414C4C2074617217
:101010006765743A22004B494C4C45442E200074BD
:101020007279696E6720746F2063616C6C207375D0
:10103000622D67636F64652066696C6573207769EC
:10104000746820746F6F206D616E79206C657665B1
:101050006C732E204D4158206C6576656C20697349
:101060003A004572726F723A00526573656E643A67
:1010700020006F6B0020746F6F206C6F6E672065AF
:101080007874727573696F6E2070726576656E74B0
:1010900065640A0020636F6C6420657874727573F0
:1010A000696F6E2070726576656E7465640A0062A1
:1010B0007573793A2070617573656420666F72206C
:1010C000696E7075740A00627573793A2070617583
:1010D00073656420666F7220757365720A006275AD
:1010E00073793A2070726F63657373696E670A0073
:1010F0004B494C4C45442E20004B494C4C206361DD
:1011000075736564206279204B494C4C206275747C
:10111000746F6E2F70696E0A004B494C4C45442E1B
:1011200020004B494C4C20636175736564206279E3
:1011300020746F6F206D75636820696E61637469D8
:1011400076652074696D65202D2063757272656EF9
:101150007420636F6D6D616E643A2000506C656140
:101160007365207265736574005052494E54455240
:101170002048414C544544005072696E7465722099
:1011800068616C7465642E206B696C6C282920631F
:10119000616C6C6564210A005654726176206D6939
:1011A0006E005654726176206D696E0056547261FD
:1011B00076206D696E00566D696E00566D696E0021
:1011C000566D696E00566D6178204500566D6178E8
:1011D000204500566D6178204500566D6178205A93
:1011E00000566D6178205A00566D6178205A00567D
:1011F0006D6178205900566D6178205900566D61F7
:1012000078205900566D6178205800566D6178201D
:101210005800566D61782058004D6F74696F6E00EC
:10122000416D6178204500416D6178204500416D38
:101230006178205A00416D6178205A00416D6178D3
:10124000205900416D6178205900416D6178205826
:1012500000416D6178205800412D74726176656C93
:1012600000412D74726176656C00412D7265747257
:1012700061637400412D726574726163740041632F
:1012800063656C00416363656C004D6F74696F6EDC
:101290000056652D6A65726B0056652D6A65726B26
:1012A0000056652D6A65726B00567A2D6A65726B01
:1012B00000567A2D6A65726B00567A2D6A65726BDC
:1012C0000056792D6A65726B0056792D6A65726BCE
:1012D0000056792D6A65726B0056782D6A65726BBF
:1012E0000056782D6A65726B0056782D6A65726BB0
:1012F000004D6F74696F6E004573746570732F6D68
:101300006D004573746570732F6D6D005A7374654D
:1013100070732F6D6D005A73746570732F6D6D004F
:101320005973746570732F6D6D00597374657073A4
:101330002F6D6D005873746570732F6D6D00587349
:10134000746570732F6D6D004D6F74696F6E00530F
:10135000746570732F6D6D004A65726B0041636335
:10136000656C65726174696F6E0056656C6F636958
:101370007479005A204F6666736574005A204F6670
:101380006673657400436F6E74726F6C00000020AA
:10139000002300260029002C002F0032000001004D
:1013A00000030106010901050505050705080808F0
:1013B00008020202020A0A080804040404010101E6
:1013C00001010101010303030303030303040707EE
:1013D000070C0C0C0C0C0C0C0C020202020606068C
:1013E00006060606060B0B0B0B0B0B0B0B01021074
:1013F000202008081020401020408002010201082F
:1014000004020101020408102040808040201008DE
:101410000402018004020180402010080402010837
:101420000402010102040810204080010204081097
:1014300020408000000A0B02090C0D0E080703046F
:10144000010000000000000000000000000000009B
:10145000000000000000000000000000000000127A
:10146000111000000000000000000000000000005B
:101470000000000000000000004B494C4C45442E89
:101480002000202D20496E76616C69642065787497
:101490007275646572206E756D62657220210A0036
:1014A0002D2D2D2D2D2D007C4D61726C696E7C00D3
:1014B0002D2D2D2D2D2D00687474703A2F2F6D61F8
:1014C000726C696E66772E6F726700687474703A1A
:1014D0002F2F6D61726C696E66772E6F72670020B8
:1014E000312E312E38002020506C616E6E657242B4
:1014F000756666657242797465733A20002046729B
:101500006565204D656D6F72793A2000436F6D708F
:10151000696C65643A204A756E203233203230316E
:10152000380A00207C20417574686F723A20286167
:10153000626567696E65732C20323031382F303622
:101540002F3233290A00323031372D31322D3235E6
:101550002031323A303000204C6173742055706471
:10156000617465643A2000312E312E380A004D61D5
:10157000726C696E0020536F6674776172652052D9
:10158000657365740A00205761746368646F67202F
:1015900052657365740A002042726F776E206F7512
:1015A000742052657365740A002045787465726E04
:1015B000616C2052657365740A00506F77657255CF
:1015C000700A0073746172740A006572726F72201F
:1015D00077726974696E6720746F2066696C650A3A
:1015E00000456E6473746F7073202563202563203B
:1015F000256320256300205A3A0020593A002058DC
:101600003A00656E6473746F7073206869743A2071
:1016100000446F6E6520736176696E672066696C41
:10162000652E0A004D32390046696C2E20446961EE
:101630002E0046696C2E204469612E004F666600BC
:101640004F6E20004520696E206D6D3300436F6E34
:1016500074726F6C0043616E6E6F7420656E74659A
:1016600072207375626469723A2000052E2E004D57
:1016700061696E0020204D383531205A005A2D50B6
:10168000726F6265204F666673657420286D6D29E0
:101690003A0A0020440020490020204D33303120F8
:1016A00050005049442073657474696E67733A0A38
:1016B0000020460020420020480020204D313435D3
:1016C0002053004D6174657269616C2068656174B6
:1016D000757020706172616D65746572733A0A008D
:1016E000205A00205900205800204200205300209A
:1016F000480020520020204D363635204C004465ED
:101700006C74612073657474696E67733A204C3C25
:10171000646961676F6E616C5F726F643E20523CFA
:101720007261646975733E20483C686569676874D6
:101730003E20533C7365676D656E74735F706572B0
:101740005F733E20423C63616C6962726174696FD1
:101750006E207261646975733E2058595A3C746FEB
:1017600077657220616E676C6520636F7272656366
:1017700074696F6E733E0A00205A002059002020C1
:101780004D363636205800456E6473746F70206194
:10179000646A7573746D656E743A0A0020204D3466
:1017A00032302053004175746F20426564204C65CF
:1017B00076656C696E673A0A00204500205A002061
:1017C000590020580020420020540020204D323083
:1017D00035205300416476616E6365643A20533C62
:1017E0006D696E5F66656564726174653E20543C28
:1017F0006D696E5F74726176656C5F666565647253
:101800006174653E20423C6D696E5F7365676D650E
:101810006E745F74696D655F75733E20583C6D61D1
:10182000785F78795F6A65726B3E205A3C6D6178AB
:101830005F7A5F6A65726B3E20453C6D61785F65DB
:101840005F6A65726B3E0A0020540020520020201F
:101850004D323034205000416363656C65726174B1
:10186000696F6E2028756E6974732F7332293A2060
:10187000503C7072696E745F616363656C3E2052A8
:101880003C726574726163745F616363656C3E2072
:10189000543C74726176656C5F616363656C3E0A8B
:1018A00000204500205A0020590020204D323031C0
:1018B0002058004D6178696D756D20416363656CDA
:1018C00065726174696F6E2028756E6974732F7309
:1018D00032293A0A00204500205A002059002020D1
:1018E0004D3230332058004D6178696D756D20663A
:1018F00065656472617465732028756E6974732FF1
:1019000073293A0A00204500205A0020590020205F
:101910004D39322058005374657073207065722001
:10192000756E69743A0A0020204D32303020443000
:101930000A0020204D323030204400204469736179
:10194000626C65640A0046696C616D656E74207333
:10195000657474696E67733A0020204D3134392004
:1019600043203B20556E69747320696E2043656C7B
:10197000736975730A002020473231202020203BF4
:1019800020556E69747320696E206D6D0A00496E72
:10199000697469616C697A6520454550524F4D0004
:1019A000436F6E74726F6C00526573746F72652052
:1019B0006661696C73616665004C6F616420736574
:1019C0007474696E677300496E697469616C697AD1
:1019D0006520454550524F4D0053746F726520731A
:1019E000657474696E67730046696C616D656E74C9
:1019F000004D6F74696F6E0054656D70657261742F
:101A0000757265004D61696E00507265686561743C
:101A10002041425320636F6E6600507265686561B5
:101A20007420504C4120636F6E66005049442D4431
:101A3000005049442D44005049442D490050494428
:101A40002D49005049442D50005049442D5000204C
:101A50000220466163740020022046616374002006
:101A600002204D6178002002204D61780020022084
:101A70004D6178002002204D696E002002204D69E2
:101A80006E002002204D696E004F6666004F6E208A
:101A9000004175746F74656D700046616E207370DF
:101AA0006565640046616E2073706565640042651B
:101AB0006400426564004E6F7A7A6C65004E6F7AFE
:101AC0007A6C6500436F6E74726F6C0053746F7242
:101AD000652073657474696E6773004265640042C3
:101AE0006564004E6F7A7A6C65004E6F7A7A6C6529
:101AF0000046616E2073706565640046616E2073F8
:101B0000706565640054656D7065726174757265A9
:101B100000656E7175657565696E6720220000004D
:101B200070420000704200007042000000005761E7
:101B3000726E696E673A20486F6D696E67204275F4
:101B40006D702044697669736F72203C20310A0001
:101B50000202040000A0400000A04000000040007D
:101B6000005C4300005C43008090430101010000E1
:101B70002110422063308440A550C660E770088180
:101B800029914AA16BB18CC1ADD1CEE1EFF13112F7
:101B9000100273325222B5529442F772D6623993D0
:101BA00018837BB35AA3BDD39CC3FFF3DEE3622447
:101BB000433420040114E664C774A44485546AA520
:101BC0004BB528850995EEE5CFF5ACC58DD55336D7
:101BD000722611163006D776F6669556B4465BB770
:101BE0007AA719973887DFF7FEE79DD7BCC7C448A7
:101BF000E5588668A7784008611802282338CCC9C0
:101C0000EDD98EE9AFF9488969990AA92BB9F55A36
:101C1000D44AB77A966A711A500A333A122AFDDB0F
:101C2000DCCBBFFB9EEB799B588B3BBB1AABA66C06
:101C3000877CE44CC55C222C033C600C411CAEED5F
:101C40008FFDECCDCDDD2AAD0BBD688D499D977E16
:101C5000B66ED55EF44E133E322E511E700E9FFFAF
:101C6000BEEFDDDFFCCF1BBF3AAF599F788F889165
:101C7000A981CAB1EBA10CD12DC14EF16FE1801049
:101C8000A100C230E3200450254046706760B9834C
:101C90009893FBA3DAB33DC31CD37FE35EF3B10299
:101CA0009012F322D2323542145277625672EAB55C
:101CB000CBA5A89589856EF54FE52CD50DC5E234E9
:101CC000C324A01481046674476424540544DBA72C
:101CD000FAB79987B8975FE77EF71DC73CD7D32639
:101CE000F2369106B01657667676154634564CD9BC
:101CF0006DC90EF92FE9C899E9898AB9ABA9445889
:101D0000654806782768C018E1088238A3287DCB8B
:101D10005CDB3FEB1EFBF98BD89BBBAB9ABB754AD8
:101D2000545A376A167AF10AD01AB32A923A2EFD1B
:101D30000FED6CDD4DCDAABD8BADE89DC98D267C28
:101D4000076C645C454CA23C832CE01CC10C1FEF6B
:101D50003EFF5DCF7CDF9BAFBABFD98FF89F176E78
:101D6000367E554E745E932EB23ED10EF01E7C3CF4
:101D70003E5E2B3D3F2F5B5D3B2C2A225C0024F412
:101D8000D43050C38E20C2A24017828B7011127AB9
:101D9000910D816CD90AA861E108C75866076151A5
:101DA00043061E4B5D05C145A7041A411104093DB8
:101DB0009803713931034036DB0265339102D43028
:101DC0005402802E1D02632CEE01752AC501B02835
:101DD000A001102781018F2564012B244B01E022F3
:101DE0003401AC211F018D200D01801FFC00841ED9
:101DF000ED00971DDF00B81CD200E61BC600201BBB
:101E0000BC00641AB200B219A8000A19A0006A182E
:101E10009900D117910040178B00B5168400311638
:101E20007E00B31579003A157300C7146F0058147B
:101E30006A00EE1366008813630025135E00C71264
:101E40005B006C12570015125400C1115100701143
:101E50004F0021114B00D61049008D10470046104D
:101E6000440002104200C00F4000800F3E00420FAD
:101E70003C00060F3B00CB0E3800930E37005C0E83
:101E80003500270E3400F30D3200C10D3100900DE6
:101E90003000600D2E00320D2D00050D2C00D90CE8
:101EA0002B00AE0C2900850C29005C0C2700350C9A
:101EB00027000E0C2600E80B2400C40B2400A00B06
:101EC00023007D0B23005A0B2100390B2100180B36
:101ED0002000F80A1F00D90A1E00BB0A1E009D0A36
:101EE0001D00800A1D00630A1C00470A1B002C0A03
:101EF0001B00110A1A00F7091A00DD091900C409AC
:101F00001900AB091900920917007B091800630931
:101F100017004C09160036091600200916000A0998
:101F20001500F5081500E0081400CC081400B808E6
:101F30001400A4081400900813007D0812006B0818
:101F40001300580812004608120034081100230834
:101F500011001208110001081100F0071000E0073D
:101F60001000D0071000C0071000B0070F00A10735
:101F7000100091070E0083070F0074070F0065071C
:101F80000E0057070E0049070E003B070D002E07F5
:101F90000E0020070D0013070D0006070D00F906BF
:101FA0000C00ED060D00E0060C00D4060C00C8067F
:101FB0000C00BC060C00B0060C00A4060B00990631
:101FC0000C008D060B0082060B0077060B006C06DA
:101FD0000B0061060A0057060B004C060A00420679
:101FE0000A0038060A002E060A0024060A001A060D
:101FF0000A001006090007060A00FD050900F4059D
:102000000900EB050900E2050900D9050900D00522
:102010000900C7050900BE050900B5050800AD05A2
:102020000800A50509009C050800940508008C051A
:102030000800840508007C050800740508006C058C
:102040000700650508005D050700560508004E05F8
:10205000070047050700400508003805070031055F
:1020600007002A050700230507001C0506001605C2
:1020700007000F0507000805060002050700FB041E
:102080000600F5040700EE040600E8040600E2047A
:102090000700DB040600D5040600CF040600C904CF
:1020A0000600C3040600BD040600B7040600B10420
:1020B0000500AC040600A6040600A00405009B046D
:1020C000060095040500900406008A0405008504B6
:1020D0000500800406007A040500750405007004FC
:1020E00005006B04050066040500610405005C043E
:1020F000050057040500520405004D04050048047E
:102100000500430405003E0404003A0405003504BC
:102110000500300404002C040500270404002304F7
:1021200005001E0404001A0404001604050011042E
:1021300004000D0404000904050004040400000464
:102140000400FC030400F8030400F4030400F0039B
:102150000400EC030400E8030400E4030400E003CB
:102160000400DC030400D8030400D4030400D003FB
:102170000400CC030400C8030300C503030024F4D7
:1021800004D9201BC40C5C0E9804C4095F026507C7
:102190007101F405F900FB04B30048048700C10392
:1021A00069005803550003034500BE023A0084024B
:1021B000310053022A002902250004022000E40114
:1021C0001C00C8011900AF01170098011400840118
:1021D0001300710110006101100051010E00430154
:1021E0000D0036010B002B010B0020010B00150127
:1021F00009000C01090003010800FB000800F300BE
:102200000800EB000700E4000600DE000600D8002E
:102210000600D2000600CC000500C7000500C20081
:102220000500BD000400B9000400B5000400B100C1
:102230000400AD000400A9000400A5000300A200F2
:1022400003009F0004009B0003009800030095001A
:10225000020093000300900003008D0002008B0039
:102260000300880002008600020084000300810051
:1022700002007F0002007D0002007B000200790066
:102280000200770001007600020074000200720074
:102290000100710002006F0002006D0001006C007F
:1022A00002006A0001006900020067000100660088
:1022B000010065000100640002006200010061008D
:1022C0000100600001005F0002005D0001005C0091
:1022D00001005B0001005A00010059000100580094
:1022E0000100570001005600010055000100540094
:1022F0000100530000005300010052000100510092
:102300000100500001004F0001004E0000004E008F
:1023100001004D0001004C0001004B0000004B008B
:1023200001004A0001004900010048000000480087
:102330000100470001004600000046000100450082
:10234000000045000100440001004300000043007C
:102350000100420000004200010041000000410075
:102360000100400001003F0000003F0001003E006E
:1023700000003E0001003D0000003D0001003C0067
:1023800000003C0000003C0001003B0000003B005E
:1023900001003A0000003A00010039000000390055
:1023A000010038000000380000003800010037004C
:1023B0000000370001003600000036000000360043
:1023C0000100350000003500000035000100340038
:1023D000000034000000340001003300000033002E
:1023E0000000330001003200000032000000320023
:1023F0000100310000003100000031000100300018
:10240000000030000000300001002F0000002F000D
:1024100000002F0000002F0001002E0000002E0001
:1024200000002E0001002D0000002D0000002D00F6
:1024300000002D0001002C0000002C0000002C00EA
:1024400000002C0001002B0000002B0000002B00DE
:1024500000002B0001002A0000002A0000002A00D2
:1024600000002A00010029000000290000002900C6
:1024700000002900000029000100280000002800B9
:1024800000002800000028000000280001002700AC
:1024900000002700000027000000270000002700A0
:1024A0000100260000002600000026000000260093
:1024B0000000260001002500000025000000250086
:1024C0000000250000002500000025000100240078
:1024D000000024000000240000002400000024006C
:1024E000010023000000230000002300000023005F
:1024F0000000230000002300000023000100220050
:102500000000220000002200000022000000220043
:102510000000220001002100000021000000210035
:102520000000210000002100000021000000210027
:10253000010020000000200000002000000020001A
:10254000000020000000200000002000000020000B
:1025500001001F0000001F0000001F0000001F00FE
:1025600000001F0000001F0000001F0001001E00EF
:1025700000001E0000001E0000001E0000004D387C
:102580003420582059205A20450020746F6F206C49
:102590006F6E6720657874727573696F6E207072E4
:1025A0006576656E7465640A0020636F6C642065EF
:1025B0007874727573696F6E2070726576656E746B
:1025C00065640A00466C6F7700466C6F7700466161
:1025D0006E2073706565640046616E20737065657A
:1025E000640042656400426564004E6F7A7A6C65EF
:1025F000004E6F7A7A6C65005370656564005370A5
:10260000656564004D61696E00507265686561744E
:1026100020504C4120456E640050726568656174BD
:1026200020504C41204265640050726568656174B9
:1026300020504C41005072657061726500507265A7
:10264000686561742041425320456E640050726594
:102650006865617420414253204265640050726590
:102660006865617420414253005072657061726503
:102670000044656C74612043616C696272617469C5
:102680006F6E00507265686561742041425300505E
:1026900072656865617420504C4100436F6F6C64D3
:1026A0006F776E0044697361626C65207374657046
:1026B00070657273004D383400426564204C657655
:1026C000656C696E67004732380A473239004175D8
:1026D000746F20686F6D6500473238004D6F766506
:1026E0002061786973004D61696E0043616C6962B5
:1026F00072617465205A0043616C6962726174652D
:1027000020590043616C6962726174652058004110
:1027100075746F20686F6D650044656C746120533B
:10272000657474696E6773004C6F616420736574BF
:1027300074696E67730043616C69627261746520CD
:1027400043656E7465720053746F726520736574AF
:1027500074696E6773005365742044656C746120FE
:10276000486569676874004733332050310041750C
:10277000746F2043616C6962726174696F6E0047A7
:102780003333004D61696E004D6F76652058004D02
:102790006F76652059004D6F7665205A0045787434
:1027A0007275646572004D6F766520302E316D6DE7
:1027B000004D6F766520316D6D004D6F766520316F
:1027C000306D6D004D6F76652061786973004578D6
:1027D000747275646572004D6F7665205A004D6F96
:1027E00076652059004D6F76652058004D6F7669EB
:1027F0006E672E2E2E0045787472756465720041E6
:1028000075746F20686F6D6500473238004D6F76C4
:1028100065205A0046726565205859004D6F7665EF
:102820002059004D6F7665205800507265706172B6
:10283000650043616E6E6F74206F70656E207375F6
:102840006264697220006563686F3A0025753A25F5
:1028500030327500253032753A25303275002D2D15
:102860002D005344005A00590058005072696E748C
:102870002070617573656400005072696E74206128
:10288000626F72746564005072696E742066726F54
:102890006D2053440053746F70207072696E740021
:1028A0004E6F205344206361726400526573756DEE
:1028B00065207072696E7400506175736520707266
:1028C000696E7400436F6E74726F6C005072657045
:1028D0006172650054756E6500496E666F207363A2
:1028E0007265656E0050726F62696E67206661691D
:1028F0006C65640A0050726F62696E672066616978
:102900006C656400205A3A200020593A2000426544
:102910006420583A200042696C696E656172204CEF
:102920006576656C696E6720477269643A0A00488B
:102930006F6D696E67206661696C65640A00486F37
:102940006D696E67206661696C6564000000000057
:102950000000000000809043202863616C63756C68
:102960006174656429210A0020213D2000454550FD
:10297000524F4D20435243206D69736D61746368FB
:10298000202D202873746F726564292000290A00A5
:102990002062797465733B20637263200020737436
:1029A0006F7265642073657474696E6773207265F5
:1029B00074726965766564202800204D61726C69C7
:1029C0006E3D563437290A0028454550524F4D3D3B
:1029D00000454550524F4D2076657273696F6E20E9
:1029E0006D69736D61746368200048617264636F20
:1029F0006465642044656661756C74205365747405
:102A0000696E6773204C6F616465640A00B80B00DF
:102A100000B80B0000B80B0000B80B000000004825
:102A2000430000484300004843000048430000A022
:102A3000420000A0420000A0420000D0423A004301
:102A400061703A0053657474696E672054726176E0
:102A5000656C20416363656C65726174696F6E3A81
:102A6000200053657474696E6720526574726163E7
:102A70007420416363656C65726174696F6E3A209E
:102A80000053657474696E67205072696E742041DA
:102A90006363656C65726174696F6E3A200053659B
:102AA0007474696E67205072696E7420616E642060
:102AB00054726176656C20416363656C6572617404
:102AC000696F6E3A2000205A0020590058002020DB
:102AD0004D61783A2000205A0020590058002020EB
:102AE0004D696E3A20004F6E20004F666600536FAE
:102AF000667420656E6473746F70733A200020648E
:102B00003A0020693A0020703A0020706F736974AF
:102B1000696F6E206F7574206F662072616E6765D5
:102B20002E0A003F50726F62652000486F6D65206D
:102B30002573257325732066697273740020666996
:102B40007273740A005A0059005800486F6D65206E
:102B500000202844525952554E290047323920410D
:102B600075746F20426564204C6576656C696E678C
:102B70000028422961636B00284629726F6E740039
:102B80002852296967687400284C29656674003FDB
:102B90002856296572626F7365206C6576656C20B6
:102BA000697320696D706C61757369626C6520284A
:102BB000302D34292E0A00426164205A2076616C3F
:102BC00075650A004E6F2062696C696E65617220DE
:102BD000677269640A00486F6D696E672058595AB8
:102BE0000047323800547A00547A005479005479FE
:102BF0000054780054780052616469757300526122
:102C00006469757300457A00457A00457900457915
:102C10000045780045780048656967687400486534
:102C200069676874004469616720526F6400446991
:102C3000616720526F640044656C74612043616C6D
:102C40006962726174696F6E0020200020205261F9
:102C5000646975733A00547A0054790054780020FE
:102C6000205261646975733A00457A0045790045E0
:102C700078002E4865696768743A007879007A7838
:102C800000797A00207A0020790020780063002EF5
:102C90002020202000205A3A0020593A0020436F7B
:102CA000756E7420583A0020453A00205A3A0020A8
:102CB000593A00583A00BC00BE0011241FBECFEFA5
:102CC000D1E2DEBFCDBF00E00CBF13E0A0E0B2E078
:102CD000E0E0FAE302E00BBF02C007900D92A03CD7
:102CE000B107D9F724E1A0ECB3E001C01D92A838E8
:102CF000B207E1F716E1CCE5D6E100E006C0219786
:102D00000109802FFE010F945E1CCB35D10780E0B6
:102D10000807A9F70F940F040D94EF1C0C94000002
:102D20002F923F924F925F926F927F928F929F92DB
:102D3000AF92BF92CF92DF92EF92FF920F931F93C9
:102D4000CF93DF93CDB7DEB7CA59D1090FB6F89448
:102D5000DEBF0FBECDBF81E090E09093B8078093B7
:102D6000B707809181148D3411F40C94E81E8435DA
:102D700011F40C94492F873411F00C948B2F80910F
:102D80007F14909180148D31910509F46AC6ACF5D9
:102D90008430910544F4823091050CF057C097FFC0
:102DA0004EC00C94A52F8430910509F414C64C979D
:102DB00011F00C94A52F0E94C4B280E00E94C7E3DA
:102DC0000E94FE4C81E08093D30F0E9425E10E9477
:102DD000744C19821A821B821C82BE016F5F7F4F66
:102DE00087E592E00E947D4F0E94E54C83E080934E
:102DF0000B020F9432030C94A52F8A32910509F42B
:102E000040C764F48E31910509F42FC6819711F003
:102E10000C94A52F0E9444350C94A52F8B35910559
:102E200009F47DC68C35910509F47EC68A35910575
:102E300011F00C94A52F1092C4030C94A52F80912F
:102E4000000281110C94AC2F0C94A52F209100024C
:102E5000222311F40C94A52F11E0029709F010E041
:102E60000E9429E282E50E94624C882309F45CC139
:102E70000E94004C6B017C014090F2045090F304DE
:102E80006090F4047090F5042091F6043091F704FA
:102E90004091F8045091F90423962CAF3DAF4EAF0A
:102EA0005FAF23978091AC049091AD04A091AE04E4
:102EB000B091AF0427968CAF9DAFAEAFBFAF279751
:102EC0002091B0043091B1044091B2045091B30408
:102ED00063962CAF3DAF4EAF5FAF639720E030E01D
:102EE000A901C701B6010F94E214882309F459C55A
:102EF000A301920127966CAD7DAD8EAD9FAD279756
:102F00000F94E214811111C023962CAD3DAD4EAD4E
:102F10005FAD239763966CAD7DAD8EAD9FAD63972E
:102F20000F94E214882309F43CC520E030E0A901A5
:102F3000C701B6010F94E214881F8827881F181351
:102F40000BC080E090E0A0E8BFE36B968CAF9DAF34
:102F5000AEAFBFAF6B970AC020E030E040E85FEB58
:102F60006B962CAF3DAF4EAF5FAF6B97A301920155
:102F700027966CAD7DAD8EAD9FAD27970F94F81859
:102F80002F966CAF7DAF8EAF9FAF2F9723962CAD52
:102F90003DAD4EAD5FAD239763966CAD7DAD8EAD0F
:102FA0009FAD63970F94F81867966CAF7DAF8EAFA7
:102FB0009FAF67972F962CAD3DAD4EAD5FAD2F9770
:102FC000CA01B9010F9447154B015C0167962CADFE
:102FD0003DAD4EAD5FAD6797CA01B9010F9447157E
:102FE0009B01AC01C501B4010F94F9180F94B21BF9
:102FF0002B966CAF7DAF8EAF9FAF2B9720E030E06C
:1030000040E05FE30F9447154B015C01A701960177
:10301000C701B6010F9447156B017C01A50194010E
:10302000C501B4010F9447159B01AC01C701B6015E
:103030000F94F8180F94B21B9B01AC016B966CAD0A
:103040007DAD8EAD9FAD6B970F9447154B015C0125
:1030500027962CAD3DAD4EAD5FAD2797C301B201B4
:103060000F94F91820E030E040E05FE30F9447153B
:103070006B017C0167966CAD7DAD8EAD9FAD6797A2
:1030800090582B962CAD3DAD4EAD5FAD2B970F9468
:10309000D5199B01AC01C501B4010F9447159B01E3
:1030A000AC01C701B6010F94F918A30192010F9466
:1030B000F8186B017C0163962CAD3DAD4EAD5FAD54
:1030C000639723966CAD7DAD8EAD9FAD23970F9426
:1030D000F91820E030E040E05FE30F9447152B0142
:1030E0003C012B962CAD3DAD4EAD5FAD2B972F9691
:1030F0006CAD7DAD8EAD9FAD2F970F94D5199B0113
:10310000AC01C501B4010F9447159B01AC01C3018B
:10311000B2010F94F91823962CAD3DAD4EAD5FADC5
:1031200023970F94F81814C089E40E94624C8823F6
:1031300029F00E94004C6B017C0103C0C12CD12CF2
:1031400076018AE40E94624C8823F9F00E94004CC8
:1031500063966CAF7DAF8EAF9FAF639720E030E09A
:10316000A901C701B6010F94E21481111EC020E02D
:1031700030E0A90163966CAD7DAD8EAD9FAD6397D8
:103180000F94E214811111C00CC420E030E0A901B9
:10319000C701B6010F94E214882309F402C46396B0
:1031A0001CAE1DAE1EAE1FAE6397D701C601B05850
:1031B00023968CAF9DAFAEAFBFAF239763962CAD78
:1031C0003DAD4EAD5FAD6397505827962CAF3DAFE8
:1031D0004EAF5FAF27979C01AD01BC01CD010F94AD
:1031E00047154B015C0127962CAD3DAD4EAD5FAD53
:1031F0002797CA01B9010F9447159B01AC01C5017E
:10320000B4010F94F9180F94B21BAB966CAF7DAF5D
:103210008EAF9FAFAB978091F2049091F304A09191
:10322000F404B091F5042B968CAF9DAFAEAFBFAF59
:103230002B97A7019601BC01CD010F94F9186B964D
:103240006CAF7DAF8EAF9FAF6B972091F60430913E
:10325000F7044091F8045091F90467962CAF3DAF04
:103260004EAF5FAF679763962CAD3DAD4EAD5FAD92
:10327000639767966CAD7DAD8EAD9FAD67970F94EC
:10328000F9186F966CAF7DAF8EAF9FAF6F9780913F
:10329000AC049091AD04A091AE04B091AF04A3969C
:1032A0008CAF9DAFAEAFBFAFA3976B962CAD3DADCE
:1032B0004EAD5FAD6B97BC01CD010F94F8186B015B
:1032C0007C012091B0043091B1044091B20450913E
:1032D000B304A7962CAF3DAF4EAF5FAFA7976F96E5
:1032E0002CAD3DAD4EAD5FAD6F97A7966CAD7DAD8E
:1032F0008EAD9FADA7970F94F8184B015C0180919C
:10330000FA049091FB04A091FC04B091FD04E396B3
:103310008CAF9DAFAEAFBFAFE3979C01AD016091A5
:10332000B4047091B5048091B6049091B7040F94E1
:10333000F8182F966CAF7DAF8EAF9FAF2F9720916F
:10334000B8043091B9044091BA045091BB04AF96CF
:103350002CAF3DAF4EAF5FAFAF978091FE04909121
:10336000FF04A0910005B0910105E7968CAF9DAFD9
:10337000AEAFBFAFE797A701960123966CAD7DADC9
:103380008EAD9FAD23970F9447152B013C01A501EE
:10339000940127966CAD7DAD8EAD9FAD27970F94B0
:1033A00047159B01AC01C301B2010F94F9182B0121
:1033B0003C01A501940123966CAD7DAD8EAD9FAD12
:1033C00023970F9447154B015C01A701960127969F
:1033D0006CAD7DAD8EAD9FAD27970F9447159B01CA
:1033E000AC01C501B4010F94F818A30192010F9428
:1033F0006C196B017C0120E030E0A9010F94E2140C
:1034000087FF0AC02BED3FE049EC50E4C701B6014D
:103410000F94F9186B017C01112351F02BED3FE063
:1034200049EC50E4C701B6010F94F8186B017C0118
:1034300020E030E0A901C701B6010F94E214811128
:1034400028C0A3962CAD3DAD4EAD5FADA3972B9696
:103450006CAD7DAD8EAD9FAD2B970F94E2148111B5
:1034600018C0A7962CAD3DAD4EAD5FADA797679642
:103470006CAD7DAD8EAD9FAD67970F94E214811159
:1034800008C04BEDC42E4FE0D42E49ECE42E40E4AE
:10349000F42EAB962CAD3DAD4EAD5FADAB97C701F5
:1034A000B6010F9447159B01AC010F9447154B01D2
:1034B0005C012F962CAD3DAD4EAD5FAD2F97CA018F
:1034C000B9010F9447159B01AC01C501B4010F94DC
:1034D000F9180F94B21B4B015C012FE632E143E86F
:1034E0005AE30F94E21487FD58C2C501B4010F944A
:1034F0006E1A0F94421A1B01672B19F4222423948D
:10350000312CB10180E090E00F94E6144B015C0196
:103510009B01AC01C701B6010F94D5192B966CAF76
:103520007DAF8EAF9FAF2B97A50194012F966CAD09
:103530007DAD8EAD9FAD2F970F94D519AB966CAF27
:103540007DAF8EAF9FAFAB97E7962CAD3DAD4EAD47
:103550005FADE797AF966CAD7DAD8EAD9FADAF978C
:103560000F94F818A50194010F94D519AF966CAF7C
:103570007DAF8EAF9FAFAF972B962CAD3DAD4EADCF
:103580005FAD2B97CA01B9010F94471520E030E0D9
:1035900040E05FE30F9447159B01AC0160E070E0F1
:1035A00080E89FE30F94F818A3966CAF7DAF8EAFC1
:1035B0009FAFA397E3962CAD3DAD4EAD5FADE397C6
:1035C00029873A874B875C87E7968CAD9DADAEAD7A
:1035D000BFADE7978D879E87AF87B88B60913A0222
:1035E00070913B02072E000C880B990B0F94E81486
:1035F0002091050230910602409107025091080285
:103600000F9447152AE037ED43E25CE30F9447152A
:103610006BAF7CAF8DAF9EAF0E94FA6A9B01AC018D
:1036200028533F4F4F4F5F4FA7962CAF3DAF4EAF44
:103630005FAFA7974FAC21965FAC219722966FACF6
:10364000229723967FAC239741E050E065965FAFC9
:103650004EAF659759E12C965FAF2C976596AEAD4E
:10366000BFAD6597A215B30509F45AC10E945E6704
:103670000E94FA6ADC01CB01A7962CAD3DAD4EADA0
:103680005FADA797821B930BA40BB50BB7FD10C0C2
:103690000E94FA6A9B01AC0128533F4F4F4F5F4F86
:1036A000A7962CAF3DAF4EAF5FAFA7970E94EC7BC4
:1036B0002C963FAD2C9731502C963FAF2C9733234F
:1036C00009F44BC0A3962CAD3DAD4EAD5FADA397B5
:1036D00027966CAD7DAD8EAD9FAD27970F944715A6
:1036E0006B017C012B962CAD3DAD4EAD5FAD2B97A4
:1036F000B201C3010F944715A70196010F94F91861
:103700007B018C01A3962CAD3DAD4EAD5FADA39773
:10371000B201C3010F9447154B015C012B962CADF0
:103720003DAD4EAD5FAD2B9727966CAD7DAD8EADAB
:103730009FAD27970F9447159B01AC01C501B401BC
:103740000F94F8182B013C01C701D80127968CAFC4
:103750009DAFAEAFBFAF279761C065964EAD5FAD71
:103760006597BA0180E090E00F94E6142B962CAD9B
:103770003DAD4EAD5FAD2B970F9447154B015C01EE
:103780000F94D2196B017C01C501B4010F94A81BE1
:103790004B015C01A701960123966CAD7DAD8EAD0A
:1037A0009FAD23970F9447152B013C01A501940170
:1037B00063966CAD7DAD8EAD9FAD63970F9447154D
:1037C0009B01AC01C301B2010F94F9182B013C011C
:1037D000A501940123966CAD7DAD8EAD9FAD239771
:1037E0000F9447154B015C01A701960163966CADE0
:1037F0007DAD8EAD9FAD63970F9447159B01AC01D6
:10380000C501B4010F94F81827966CAF7DAF8EAF49
:103810009FAF279759E12C965FAF2C979201A30198
:103820006B966CAD7DAD8EAD9FAD6B970F94F91817
:1038300069837A838B839C8327962CAD3DAD4EADF7
:103840005FAD27976F966CAD7DAD8EAD9FAD6F97D9
:103850000F94F9186D837E838F839887AB962CAD78
:103860003DAD4EAD5FADAB9769857A858B859C8507
:103870000F94F91869877A878B879C87AF962CAD50
:103880003DAD4EAD5FADAF976D857E858F859889D7
:103890000F94F9186D877E878F87988B80915402DB
:1038A000882321F0CE0101960E9418B1E090A21267
:1038B00089819A81AB81BC8188A399A3AAA3BBA368
:1038C0008D819E81AF81B8858CA39DA3AEA3BFA33C
:1038D00089859A85AB85BC8588A799A7AAA7BBA728
:1038E000CE0180960E94824CCE0180960E94CD81AE
:1038F0008E01055C1F4F9E01235F3F4F4AE055E05C
:1039000066E075E082E095E00E94A0C865968EAD05
:103910009FAD6597019665969FAF8EAF65979ECEDA
:10392000E090A2128091AC049091AD04A091AE04FD
:10393000B091AF0488A399A3AAA3BBA38091B004BC
:103940009091B104A091B204B091B3048CA39DA353
:10395000AEA3BFA38091B4049091B504A091B60426
:10396000B091B70488A799A7AAA7BBA7CE01809654
:103970000E94824CCE0180960E94CD818E01055C12
:103980001F4F28EB34E04AE055E066E075E082E046
:1039900095E00E94A0C80E94D04C0E94DA4C0C9482
:1039A000A52FE2E6F0E184918F010F5F1F4F88237E
:1039B00021F00E94844FF801F6CFE1EEF1E084910E
:1039C0008F010F5F1F4F882311F40C94A52F0E94C5
:1039D000844FF801F4CF80E50E94624C882329F0DF
:1039E0000E94C04B6B017C0103C0C12CD12C76011D
:1039F00083E50E94624C882361F00E94004C20E025
:103A000030E04AE754E40F9447150F94421A6B01D3
:103A10007C010E94C4B280915B02811105C060E00C
:103A200087EF91E00E94DE6F0E94DA4C8091C00720
:103A30009091C107A091C207B091C307C80ED91ECB
:103A4000EA1EFB1E0E94FA6ADC01CB018C199D095B
:103A5000AE09BF09B7FD02C00C94A52F0E94EC7BF4
:103A6000F1CF0E9431F20C94A52FC090F204D090B7
:103A7000F304E090F404F090F50488E50E94624CB1
:103A8000811108C020E030E0A901C701B6010F9400
:103A9000F91802C00E94004C68A379A38AA39BA3D3
:103AA000C090F604D090F704E090F804F090F90488
:103AB00089E50E94624C811108C020E030E0A90134
:103AC000C701B6010F94F91802C00E94004C6B01A7
:103AD0007C0169837A838B839C8368A179A18AA105
:103AE0009BA19B01AC010F9447154B015C01A70101
:103AF0009601C701B6010F9447159B01AC01C501A2
:103B0000B4010F94F91820E030E14DE356E40F942E
:103B1000E214181614F40C94A52F0C94B12F81E024
:103B20008093C4030C94A52F0E94C4B28FE9282E61
:103B300082E0382E96E9E92E92E1F92E22EFC22E8C
:103B400024E0D22E00E010E01FAEF10181911F01B0
:103B50000E94624C882309F44CC00E94004C4B0127
:103B60005C010330110549F0D7012D913D914D9134
:103B70005C910F94F8184B015C01F60120813181B2
:103B800042815381C501B4010F94F8182B013C0107
:103B90002DEB37E346E855EB0F946D1B87FD0AC00C
:103BA0002DEB37E346E855E3C301B2010F94E2146D
:103BB0001816FCF40330110559F48092FE0490921B
:103BC000FF04A0920005B0920105F1E0FFAF11C023
:103BD000A3019201D7016D917D918D919C910F94DC
:103BE000F918F7016083718382839383C8010E946F
:103BF000C7490F5F1F4FF4E0EF0EF11C24E0C20E27
:103C0000D11C0430110509F0A0CF3FAD3323A9F139
:103C1000C090FE04D090FF04E0900005F0900105F4
:103C20002091760830917708409178085091790872
:103C3000C701B6010F9447150F94781B6093CC0F02
:103C40007093CD0F8093CE0F9093CF0FC701B60125
:103C50000F943D1A2FB7F894609348047093490469
:103C600080934A0490934B042FBF1092BC0F109284
:103C7000BD0F1092BE0F1092BF0F0F9432030C9421
:103C8000A52F80910002882311F40C94A52F89E4BC
:103C90000E94624C082F882321F00E94D04BE62E10
:103CA00001C0E12C8AE40E94624CF82E882331F096
:103CB0000E94D04B162F011104C00BC010E000234E
:103CC000B9F048E04E1510F00C942335E2E1F2E033
:103CD00003C01930D8F70CC084918F010F5F1F4FBC
:103CE000882311F40C94A52F0E94844FF801F4CF7F
:103CF0000E94C64C0023F1F02091191430911A143F
:103D00005E2D5203B001539F700D112420911514A4
:103D100030911614620F731F072E000C880B990B3D
:103D20000F94E8146093AC047093AD048093AE04D8
:103D30009093AF04FF20E9F020911B1430911C14E4
:103D40001203B001139F700D1124809117149091EC
:103D50001814680F791F072E000C880B990B0F940D
:103D6000E8146093B0047093B1048093B20490930C
:103D7000B30480E50E94624C882319F00E94F14B45
:103D800003C080E50E94334C86E40E94624C882385
:103D9000D9F00E94004C6B017C0120E030E0A901C9
:103DA0000F946D1B181684F420E030E040E752E4D5
:103DB000C701B6010F94D5196093050270930602EE
:103DC00080930702909308020E9402850C94A52F0D
:103DD00080917F14909180148337910511F40C9495
:103DE0001D270CF0CAC08C34910509F441C50CF0B4
:103DF00071C08831910509F4AAC2E4F582319105B8
:103E000009F440C7F4F497FF02C00C94A52F823048
:103E100091050CF4B4C1419711F00C94A52F60E00A
:103E200089E692E00E94DE6F5F988A989FB7F894C7
:103E3000809108018E7F809308019FBF12980C9497
:103E4000A52F8531910509F467C23CF4449711F020
:103E50000C94A52FE1E8F2E01CC28631910509F42B
:103E60005FC2479711F00C94A52FE0917D14F0915B
:103E70007E1460C28E31910509F4C4C2C4F48A3143
:103E8000910509F475C20CF46DC28B31910509F4EA
:103E90007DC24C9711F00C94A52F40E060E080911A
:103EA0007D1490917E140E9465740C94A52F80322D
:103EB000910509F4ABC30CF4F5C38A32910509F4FA
:103EC00097C48B34910511F00C94A52F0E94B779FB
:103ED0000C94A52F8936910509F4FFC524F5833587
:103EE000910509F4CAC67CF48135910509F4AAC686
:103EF0000CF0BFC68D34910511F00C94A52F0E94D3
:103F0000F0D70C94A52F8535910509F4F2C60CF471
:103F1000B9C68C35910509F407C78836910509F4AF
:103F2000ABC40C94A52F8E36910509F4FCC484F41F
:103F30008B36910509F474C60CF44DC68C36910588
:103F400009F475C58D36910509F40BC60C94A52F9F
:103F50008037910509F46FC50CF4F8C481379105D9
:103F600009F471C58237910511F00C94A52F0E94B8
:103F7000C4B20F9432030C94A52F8C32A1E09A079F
:103F800011F40C944F290CF078C08E3B910509F484
:103F900006C6ACF58837910511F40C943428A4F4C6
:103FA0008637910509F49DC70CF0DAC7853791056E
:103FB00011F00C94A52F60E080917D1490917E14F7
:103FC0000E94FC6F0C94A52F8C38910509F467C5ED
:103FD0005CF48937910511F00C94A52F1092D30F42
:103FE0001092D20F0C94A52F8139910511F40C94E5
:103FF0003A288B39910509F48DC50C94A52F8D3C79
:10400000910511F40C941B29DCF4893C910511F401
:104010000C94F7283CF4883C910511F40C94B128D9
:104020000C94A52F8B3C910511F40C9418298C3C11
:10403000910511F00C94A52F0E9429F10C94A52F45
:104040008C3D910511F40C943F294CF4833D91056E
:1040500011F00C94A52F0E9467EF0C94A52F8D3DB5
:10406000910511F40C944C29823E910511F00C94A9
:10407000A52F0E94C2EE0C94A52F853AE1E09E0781
:1040800011F40C94192EA4F5803921E0920711F453
:104090000C948A2DC4F48E3241E0940711F40C94F0
:1040A000552914F40C9452298F32A1E09A0711F487
:1040B0000C94A9298336914011F00C94A52FE2E6C7
:1040C000F0E10C941D2F8239E1E09E0711F40C946D
:1040D000912D14F40C948D2D8A3921E0920709F466
:1040E000AEC4843A914011F40C94952D0C94A52FF4
:1040F000893942E0940711F40C941E29ECF4853FB1
:10410000A1E09A0711F40C94B12E4CF4843F914035
:1041100011F00C94A52F0E94E4530C94A52F863F18
:10412000F1E09F0711F40C94B42E873F914011F4F5
:104130000C94B72E0C94A52F833533E0930711F41C
:104140000C94C32E84F48A39924011F00C94A52F5C
:1041500011E3E12E14E1F12E0FE912E083E0D82EF5
:10416000D00E0C943729803AA3E09A0709F48DC247
:10417000873E934011F40C94342F0C94A52FA090FB
:104180007D14B0907E1480E50E94624C882359F023
:104190000E94C04B6B017C0111E0672B682B692BDF
:1041A00031F410E004C010E0C12CD12C760183E57D
:1041B0000E94624C8823F1F00E94004C20E030E025
:1041C0004AE754E40F9447150F94421A6B017C019F
:1041D000111112C0672B682B692B71F4A114B10463
:1041E00059F0F5018081882339F061E0C5010E9412
:1041F000FC6F07C0112391F360E086E592E00E9416
:10420000DE6F83E090E09093B8078093B70781E07A
:104210008093CC040E94C4B20E94DA4CC114D10431
:10422000E104F104E9F08091C0079091C107A091E9
:10423000C207B091C307C80ED91EEA1EFB1E0E941A
:10424000FA6ADC01CB018C199D09AE09BF09B7FFE1
:104250001CC08091CC048823C1F00E94EC7BEFCF7E
:104260008091CC04882319F00E94EC7BF9CF8091D7
:10427000F20F9091F30F60E0029719F480E492E05E
:1042800002C081E392E00E94DE6F1092CC040C9495
:10429000A52F84918F010F5F1F4F882321F00E946B
:1042A000844FF801F6CF109288121092871240E0E6
:1042B00050E0BA0183E390E10E94615B8BE1E3E3AC
:1042C000F0E1DE01159601900D928A95E1F780915B
:1042D0003110909132109C838B8387EB92E09A830C
:1042E000898340E050E0BE016F5F7F4F86EB93E033
:1042F0000E9410D9CE0101960E949EB2E2E7F2E040
:1043000084918F010F5F1F4F882311F40C94A52F08
:104310000E94844FF801F4CF0E94A2770C94A52F3D
:1043200010920210109203100C94A52F803209F401
:104330001082319680818111F9CF40E061E0809157
:104340007D1490917E140E9465740C94A52F809129
:104350000310882319F081E0809302100E94B7793E
:104360000C94A52F109202100E94F7790C94A52F9F
:1043700080910310882311F40C94A52F83E50E94EB
:10438000624C81110C9409300C94A52F809103107C
:10439000882351F1E2E9F2E084918F010F5F1F4F12
:1043A000882321F00E94844FF801F6CF60917E129D
:1043B00070917F1280918012909181124AE00E9448
:1043C0001F528FE20E94844F60917A1270917B128B
:1043D00080917C1290917D124AE00E941F528AE0E7
:1043E0000E94844F0C94A52FE4EAF2E084918F019F
:1043F0000F5F1F4F882311F40C94A52F0E94844F48
:10440000F801F4CF80910310882311F40C94A52FA8
:104410008DEC91E10E942F5B8DEC91E10E943CAB11
:104420001092011010920010E0907D14F0907E1414
:1044300080910310882311F40C94A52F0E94E5D7D6
:104440009E012F5F3F4F6901C9010E9436598FE2DB
:1044500090E190934F1080934E10D7018C918F3242
:1044600009F060C06FE270E0C7010F94AC1C8C01D2
:104470000F5F1F4F09F45CC06FE270E0C8010F943A
:10448000AC1C5C01009709F454C00817190708F028
:1044900050C04C01801A910AA401B801CE01809647
:1044A0000F94D51CE0E2F0E0EC0FFD1FE80DF91DC4
:1044B00010828E01005E1F4FF80181918F018823C9
:1044C00019F00E94844FF8CF8AE00E94844F6091D7
:1044D0004E1070914F106115710511F06C5F7F4F98
:1044E00021E0AE01405E5F4FCE0105960E9480AF95
:1044F000811112C0BE01605E7F4F8BED92E00E9481
:10450000A2BA8EE20E94844F8AE00E94844FC601C4
:104510000E949EB20C94A52FD0924F10C0924E10C4
:104520008501A6CF80E590E190934F1080934E10C7
:10453000870160914E1070914F106115710511F057
:104540006C5F7F4F18A21BA222E0A801CE018096CB
:104550000E9480AF811102C0F12C14C0CE01809660
:104560000E9453D78823C1F361E0CE0180960E9458
:1045700045AB009789F325EEDC012C931BA20E942A
:104580004059F82ECE0180960E946E4CFF2009F112
:10459000E5EBF2E084917F01BFEFEB1AFB0A882381
:1045A00021F00E94844FF701F5CFF80181918F012E
:1045B000882319F00E94844FF8CF8AE00E94844F2C
:1045C00010927E1210927F1210928012109281121D
:1045D00018C0E3ECF2E084917F012FEFE21AF20AB7
:1045E000882321F00E94844FF701F5CFD8018D91E7
:1045F0008D01882319F00E94844FF8CF8EE20E942B
:10460000844FC6010E949EB20C94A52F8091021087
:1046100081110E94C4B280910310882311F40C947C
:10462000A52F80E50E94624C882319F00E94F14B6F
:1046300003C080E50E94334C182F482F61E0809121
:104640007D1490917E140E94657483E50E94624CF3
:10465000882381F00E94D04BAB01BC0140937E12B5
:1046600050937F1260938012709381128DEC91E1D0
:104670000E94615B80910310882319F081E0809390
:10468000021011110C94A52F69CE80917D14909188
:104690007E1421E02093011040E060E00E946574E8
:1046A0000C94A52F0E94DAD80CE3C02ED12CE12C5B
:1046B000F12CA70196010F94BD18762E672ECA0122
:1046C000B901A70196010F94BD186B017C01CA01C5
:1046D000B90128E130E040E050E00F94BD184B01F3
:1046E0005C01C9016DE671E00F941B1C8E010F5F28
:1046F0001F4F6115710599F06F927F92DF92CF92F3
:104700009F928F929F938F937F936F9387E193E014
:104710009F938F931F930F930F947B1412C0009756
:10472000B1F06F927F92DF92CF929F928F929F9380
:104730008F9387E093E09F938F931F930F930F9432
:104740007B140FB6F894DEBF0FBECDBF36C0811408
:104750009104A104B10479F06F927F92DF92CF921D
:104760009F928F928BEF92E09F938F931F930F9363
:104770000F947B14E6CFC114D104E104F10469F075
:104780006F927F92DF92CF9283EF92E09F938F930D
:104790001F930F930F947B14D4CF6F927F928FEE61
:1047A00092E09F938F931F930F930F947B140F901E
:1047B0000F900F900F900F900F9060E0C8010E9433
:1047C000FC6FE6E4F8E284917F019FEFE91AF90AB1
:1047D000882321F00E94844FF701F5CFB8018BE2C6
:1047E00093E00E94A2BA8AE00E94844F0C94A52F05
:1047F00083E50E94624C882311F40C94A52F0E943B
:10480000E04BE82E80E50E94624C882341F00E9434
:10481000D04B8B0177FF02C00C94A52F02C00DE096
:1048200010E0902FE8E3F3E088E28E0F24919217D6
:1048300029F031968E13FACF0C941A30E2E6F0E1AB
:1048400084918F010F5F1F4F882321F00E94844FB6
:10485000F801F6CFE0E6F3E084918F010F5F1F4F80
:10486000882311F40C94A52F0E94844FF801F4CFF3
:104870000E94F7790C94A52F88E690E00E9485525B
:1048800081110C94A52F8091640F83FF02C00C94BA
:10489000A52F83E50E94624C882309F440C00E9442
:1048A000004C0F943D1A70935C1460935B1480E08D
:1048B0000E94F9620E94004C20E030E04AEA52E493
:1048C0000F94E21418163CF00E94F0D760E086E7DF
:1048D00093E00E94DE6F0E94004C20918D12309177
:1048E0008E1240918F12509190120F946D1B1816DA
:1048F000B4F488E393E09F938F938091530490E006
:1049000001969F938F938FE693E09F938F931F92CF
:104910000E949C790FB6F894DEBF0FBECDBF0F94F6
:10492000BE090C94A52F8EE40E94624C882311F4DA
:104930000C94A52F0E94D04B609310057093110525
:1049400080931205909313050C94A52F83E50E9484
:10495000334C882359F083E50E94624C882319F078
:104960000E94E04B01C080E08093640FE6E4F8E22F
:1049700084918F010F5F1F4F882321F00E94844F85
:10498000F801F6CFEAE9F3E084918F010F5F1F4F42
:10499000882321F00E94844FF801F6CF8091640FA4
:1049A0008823A1F11CE8C12E13E0D12EE12CF12CBB
:1049B00020E08091640F90E00E2C02C095958795C1
:1049C0000A94E2F780FF17C0BB24B394B20E2223EF
:1049D00019F08CE20E94844FF60125913491F9017F
:1049E000849189010F5F1F4F882321F00E94844F1B
:1049F0009801F5CF2B2DFFEFEF1AFF0A32E0C30E1F
:104A0000D11C45E0E416F104A1F60CC0E6E9F3E0A0
:104A100084918F010F5F1F4F882321F00E94844FE4
:104A2000F801F6CF8AE00E94844F0C94A52F1092D3
:104A300098020C94A52F81EA93E00E949D7B0E942E
:104A4000AFED0C94A52F83E50E94624C882369F09A
:104A50000E94E04B8D3320F4809316020C94A52F16
:104A60008CE3809316020C94A52FE6E4F8E284917F
:104A70008F010F5F1F4F882321F00E94844FF801A0
:104A8000F6CF4091160250E060E070E08AEA93E0D1
:104A90000E9432BA8AE00E94844F0C94A52F809124
:104AA000640F83FF02C00C94A52F83E50E94624C23
:104AB000882311F40C94A52F0E94004C0F943D1AEA
:104AC0006739710514F066E970E070935A146093C9
:104AD00059140E94AE620C94A52F89E690E00E94C2
:104AE0008552811111C0E1EBF3E084918F010F5FDA
:104AF0001F4F882321F00E94844FF801F6CF0E94B7
:104B000022628AE00E94844F1092B8071092B70781
:104B10000C942A3583E50E94624C882311F40C948E
:104B2000A52F0E94E04B182F8D3308F01CE3109343
:104B3000BD070E94FA6A6B017C01212F30E0A8EECC
:104B4000B3E00F94E918C60ED71EE81EF91EC092F6
:104B5000B907D092BA07E092BB07F092BC070C9459
:104B6000A52F8DE690E00E94855281110C94A52F0F
:104B70008091640F83FF02C00C94A52F83E50E94EF
:104B8000624C60968FAF609781110C94303082E553
:104B90000E94624C81110C9430300C94A52F8091AE
:104BA000640F83FF02C00C94A52F60E081EF93E0B7
:104BB0000E94DE6F83E50E94624C60968FAF609723
:104BC00081110C94C43182E50E94624C81110C94D5
:104BD000C4310C94A52F80E50E94624C811108C05D
:104BE00083E50E94624C811109C03FEF20E00AC0BA
:104BF0000E94E04B81110C94A52FF2CF0E94D04B64
:104C0000362F272F832F922F8F3F910519F010F009
:104C10008FEF90E090935E1480935D140C94A52F19
:104C200080E50E94624C811106C010925E141092C1
:104C30005D140C94A52F0E94D04B672B11F00C949F
:104C4000A52FF3CF0E9443630E94C4B20E948D7BC4
:104C500010925E1410925D1468EE73E080E090E0B4
:104C60000E943D6F60E08EEF93E00E94DE6F0C9437
:104C7000A52F1092C3030C94A52F81E08093C3034A
:104C80000C94A52F83E50E94624C8823A1F00E941A
:104C9000004C20E030E04AE754E40F9447150F94AD
:104CA000421A60931702709318028093190290932E
:104CB0001A020C94A52F88E50E94334C81110C94A4
:104CC0002A3389E50E94334C81110C942A338AE5FA
:104CD0000E94334C81110C942A3385E40E94334C9A
:104CE00081110C942A330E94C4B20E948D7B0C94D3
:104CF000A52F83E50E94334C882311F40C94A52F33
:104D00000E94004C20E030E04AE754E40F9447153D
:104D10000F94421A6093C4077093C5078093C60727
:104D20009093C7070C94A52F6FE9C62E62E0D62E8C
:104D30007AE6E72E78E0F72E10E0D6018D916D012E
:104D40000E94334C882309F46DC0133009F063C00E
:104D50000E94004C4B015C0120E030E040EA51E44D
:104D60000F94E21487FF4EC0A5019401609176086C
:104D70007091770880917808909179080F94D519EF
:104D80002B013C019B01AC016091660870916708A2
:104D900080916808909169080F94471560936608A0
:104DA000709367088093680890936908A301920143
:104DB00060913A0870913B0880913C0890913D08C1
:104DC0000F94471560933A0870933B0880933C0812
:104DD00090933D086091710F7091720F8091730FE5
:104DE0009091740F0F94E614A30192010F9447154C
:104DF0000F94421A6093710F7093720F8093730F28
:104E00009093740F8092760890927708A092780819
:104E1000B092790807C00E94004CF701608371834B
:104E2000828393831F5FF4E0EF0EF11C143009F0CE
:104E300084CF0E94BAC70C94A52FE9ECF4E08491CA
:104E40008F010F5F1F4F882321F00E94844FF801CC
:104E5000F6CF60E089EB94E00E94B4F161E082EB70
:104E600094E00E94B4F161E087EA94E00E94B4F11A
:104E700061E087E994E00E94B4F160E08EE894E09C
:104E80000E94B4F161E084E894E00E94B4F161E032
:104E90008AE794E00E94B4F161E082E794E00E9426
:104EA000B4F161E084E694E00E94B4F160E086E54C
:104EB00094E00E94B4F160E087E494E00E94B4F1D1
:104EC00060E089E394E00E94B4F160E083E294E062
:104ED0000E94B4F160E082E194E00E94B4F10C948D
:104EE000A52F85E40E94624C882319F00E94F14BA3
:104EF00003C085E40E94334C882361F0E6E4F8E2C5
:104F000084918F010F5F1F4F882321F00E94844FEF
:104F1000F801F6CF81E40E94624C882319F00E94C8
:104F2000F14B03C081E40E94334C882361F0E3E934
:104F3000F5E084918F010F5F1F4F882321F00E94BD
:104F4000844FF801F6CF00917D1410917E14D801A2
:104F50008D918D01882309F465CD0E94844FF7CF90
:104F6000E7EBF5E084918F010F5F1F4F882321F05D
:104F70000E94844FF801F6CFEFEAF5E084918F01AB
:104F80000F5F1F4F882321F00E94844FF801F6CF56
:104F9000649903C00DE113E002C002E213E0F801DE
:104FA00081918F01882319F00E94844FF8CF8AE005
:104FB0000E94844FE7EAF5E084918F010F5F1F4F55
:104FC000882321F00E94844FF801F6CF80910301DD
:104FD00080FD03C00DE113E002C002E213E0D8013E
:104FE0008D918D01882319F00E94844FF8CF8AE0BB
:104FF0000E94844FEFE9F5E084918F010F5F1F4F0E
:10500000882321F00E94844FF801F6CF4B9903C00A
:105010000DE113E002C002E213E0F80181918F017B
:10502000882319F00E94844FF8CF8AE00E94844FB1
:10503000E7E9F5E084918F010F5F1F4F882321F08E
:105040000E94844FF801F6CF4A9903C00DE113E0A6
:1050500002C002E213E0D8018D918D01882309F48A
:10506000E1CC0E94844FF7CF81E08093D30F8093EF
:10507000D20F6BC783E50E94624C882319F00E940F
:10508000D04B02C060E070E08B01112702301105A7
:10509000CCF0E2E6F0E184918F010F5F1F4F88238F
:1050A00021F00E94844FF801F6CFE1EDF5E0849104
:1050B0008F010F5F1F4F882309F447C70E94844F59
:1050C000F801F5CF88E40E94624C8823A9F00E9481
:1050D000D04B6A3A71053CF06530B1E07B072CF0AB
:1050E00064E071E002C06AEA70E0F801EE0FFF1FB1
:1050F000EC5AF54F7183608386E40E94624C8823EA
:10510000A9F00E94D04BF801EE0FFF1FE85AF54FAF
:10511000718360836F3F710519F014F06FEF70E0D9
:1051200077FF02C060E070E07183608382E40E94D8
:10513000624C882309F409C70E94D04B6530710581
:1051400034F0683871052CF067E870E002C065E063
:1051500070E0000F111FF801E05BF54F7183608371
:10516000F4C688EC90E00E9485528111EEC684E47A
:105170000E94334C8823C1F10E94004C11E020E0D2
:1051800030E0A9010F94E214811101C010E01093E6
:10519000340A112349F10E94004CE091530424E0A9
:1051A000E29FF0011124E05DF54F608371838283FB
:1051B000938320E030E0A9016091300A7091310AB8
:1051C0008091320A9091330A0F94E21481110CC03D
:1051D00080E090E0A0E4B0E48093300A9093310A3C
:1051E000A093320AB093330A0E94CABAAEC69EE3B5
:1051F000E92E98E0F92E0FE912E024E0D22ED00E2D
:10520000D8018D918D010E94334C882349F00E9472
:10521000004C0F94421AF701608371838283938359
:10522000F4E0EF0EF11CD012EBCF0E9450C78DC6F8
:105230000E9492F18AC60E94BFF087C60E9445F084
:1052400084C60E94004C20E030E0A9010F94E214D3
:1052500018163CF00E94004CF70160837183828332
:105260009383F4E0EF0EF11CD01609F46EC6D8015A
:105270008D918D010E94334C882399F3E2CF83E511
:105280000E94624C882309F460C60E94D04B709340
:105290003B0260933A0259C60E941DEF56C60E9417
:1052A0008DEE53C60E94F0ED50C683E50E94334C4C
:1052B000182F882371F00E94004C0F943D1A7093B0
:1052C00033026093320221E0672B09F020E0209343
:1052D000630F80E50E94334C882359F020913202FD
:1052E00030913302232B11F00E94F14B8093630F16
:1052F0002CC611112AC6E6E4F8E284918F010F5FF3
:105300001F4F882321F00E94844FF801F6CF80912F
:10531000630F811103C06CE273E002C06FE173E0C0
:1053200088E096E00E94A2BA609132027091330246
:1053300087EF95E00E9489BAE3EFF5E084918F0151
:105340000F5F1F4F882309F400C60E94844FF801A5
:10535000F5CF85E40E94624C882321F00E94D04B57
:105360005B0102C0A12CB12C83E40E94624C882313
:1053700041F00E94D04BC058DF4F6883C058D040E6
:1053800006C025E0C058DF4F2883C058D04085E5CF
:105390000E94624C882319F00E94F14B03C085E5FE
:1053A0000E94334CC457DF4F8883CC58D040B7FCA1
:1053B00007C0412C512CB6E16B2EB3E47B2E06C006
:1053C000412C512CACE86A2EA2E47A2E83E50E948F
:1053D000624C882321F00E94004C2B013C01A11457
:1053E000B10411F4109253040E94FA6A6B017C011B
:1053F000DC01CB018C53964FAF4FBF4F80934C04D1
:1054000090934D04A0934E04B0934F04A11003C099
:1054100003E413E00BC006E513E0D8018D918D0184
:10542000882309F4FFCA0E94844FF7CFF8018191C5
:105430008F01882319F00E94844FF8CFC301B20175
:105440000F943D1A072E000C880B990B0F94E8144B
:1054500060966FAF609728967FAF28972C968FAF96
:105460002C9764969FAF6497A7019601205E314BFD
:105470004F4F5F4FCB56DF4F288339834A835B837F
:10548000C559D0408AE00E94844F0E9443638FE751
:105490008093520481E080939802CC57DF4FC882FA
:1054A000D982EA82FB82C458D040C357DF4FC882FA
:1054B000D982EA82FB82CD58D040CD57DF4F188287
:1054C000C358D040CF56DF4F188219821A821B82F0
:1054D000C159D0406C961FAE6C9730E4A0963FAF98
:1054E000A0974CE1A4964FAFA49756E4E0965FAF27
:1054F000E097E4961FAEE497A8961FAEA897AC96E7
:105500001FAEAC97E8961FAEE897C458DF4F1882DD
:1055100019821A821B82CC57D040EC961CAE1DAE6D
:105520001EAE1FAEEC97812C912C5401FFE74F2E3D
:10553000512C612C712C8FE790E0A0E0B0E0279611
:105540008CAF9DAFAEAFBFAF2797C857DF4F188264
:1055500019821A821B82C858D04091E0CE57DF4F83
:105560009883C258D04069961FAE1EAE699710E06E
:10557000212C312C00E0C058DF4FA881C058D0400A
:105580000A2E000CBB0BC058DF4FB983A883C0584C
:10559000D04080919802882309F441C10E94FA6AA0
:1055A00023966CAF7DAF8EAF9FAF23978091500451
:1055B000882309F410C10E94096410918D12209073
:1055C0008E1230908F1200919012212F322D432D88
:1055D000502FE4966FADE497A8967FADA897AC9650
:1055E0008FADAC97E8969FADE8970F94E21487FFD4
:1055F0000CC0E4961FAFE497A8962FAEA897AC9680
:105600003FAEAC97E8960FAFE897212F322D432D90
:10561000502F6C966FAD6C97A0967FADA097A49617
:105620008FADA497E0969FADE0970F946D1B181671
:1056300064F46C961FAF6C97A0962FAEA097A496BB
:105640003FAEA497E0960FAFE09780914C04909105
:105650004D04A0914E04B0914F0423962CAD3DAD66
:105660004EAD5FAD2397281B390B4A0B5B0B57FDE3
:1056700014C00E94F56623968CAD9DADAEADBFAD56
:1056800023978C53964FAF4FBF4F80934C0490930A
:105690004D04A0934E04B0934F04CE57DF4F388192
:1056A000C258D04060962FAD6097332309F468C08C
:1056B00028963FAD28972C964FAD2C9764965FADFA
:1056C0006497612F722D832D902F0F946D1B1816E8
:1056D0000CF081C023964CAD5DAD6EAD7FAD2397D0
:1056E0004C195D096E097F09DB01CA018858934195
:1056F000A109B109B7FD6FC027968CAD9DADAEADC8
:10570000BFAD279784199509A609B709B595A7953F
:105710009795879580935204C857DF4F48835983E4
:105720006A837B83C858D04060964FAD6097E496FB
:105730004FAFE49728965FAD2897A8965FAFA897DC
:105740002C968FAD2C97AC968FAFAC9764969FAD8F
:105750006497E8969FAFE89723962CAD3DAD4EAD8C
:105760005FAD2397CC57DF4F288339834A835B8310
:10577000C458D040CE57DF4F1882C258D0402BC0FB
:1057800028963FAD28972C964FAD2C9764965FAD29
:105790006497612F722D832D902F0F94E21487FF51
:1057A0001AC023968CAD9DADAEADBFAD2397CC573F
:1057B000DF4F288139814A815B81C458D040821BE8
:1057C000930BA40BB50BAC01BD01485853416109C3
:1057D000710977FF69C720E030E040EA51E4609644
:1057E0006FAD609728967FAD28972C968FAD2C973C
:1057F00064969FAD64970F94F9189B01AC01612FDB
:10580000722D832D902F0F946D1B18167CF4E3E1FD
:10581000F7E084918F010F5F1F4F811103C00E9439
:10582000436393C30E94844FF801F3CF23968CAD5A
:105830009DADAEADBFAD2397C357DF4F28813981F2
:105840004A815B81CD58D040821B930BA40BB50BD2
:10585000B7FDB7C00E9422628AE00E94844F23965F
:105860008CAD9DADAEADBFAD23978053984FAF4F7C
:10587000BF4FC357DF4F88839983AA83BB83CD581B
:10588000D040CD57DF4F9881C358D040911176C09A
:10589000CF56DF4F288139814A815B81C159D04081
:1058A000612F722D832D902F0F946D1B18160CF005
:1058B0004CC020E030E040EC50E460966FAD609763
:1058C00028967FAD28972C968FAD2C9764969FAD28
:1058D00064970F94F8189B01AC01A1E0CD57DF4FFE
:1058E000A883C358D040612F722D832D902F0F9421
:1058F0006D1B18162CF0CD57DF4F1882C358D040BF
:1059000020E030E040E050E4612F722D832D902F95
:105910000F94F918CF56DF4F688379838A839B836E
:10592000C159D04023962CAD3DAD4EAD5FAD239710
:10593000205E314B4F4F5F4FCB56DF4F288339836B
:105940004A835B83C559D0403CC023968CAD9DAD46
:10595000AEADBFAD2397CB56DF4F288139814A8149
:105960005B81C559D040821B930BA40BB50BB7FDCF
:1059700028C045EF56E064E077E020C020E030E04A
:1059800040EA51E460966FAD609728967FAD289706
:105990002C968FAD2C9764969FAD64970F94F81852
:1059A0009B01AC01612F722D832D902F0F94E21477
:1059B00087FF07C045ED56E065EE76E080E00E9487
:1059C0002B6423968CAD9DADAEADBFAD2397880FF4
:1059D000991FAA1FBB1FCC57DF4F288139814A81ED
:1059E0005B81C458D040821B930BA40BB50B8C1960
:1059F0009D09AE09BF0981389F44A241B10568F0F5
:105A0000E7EBF6E084918F010F5F1F4F882309F4C5
:105A100006CF0E94844FF801F5CF69964EAD5FAD79
:105A20006997C058DF4F88819981C058D04084174A
:105A300095070CF06CC0EAE5F6E084918F010F5FEA
:105A40001F4F882321F00E94844FF801F6CFB50143
:105A5000A40185E496E00E946CBA8AE00E94844F1B
:105A6000EC964CAD5DAD6EAD7FADEC9780E396E00E
:105A70000E946CBA8AE00E94844FC458DF4F48816C
:105A800059816A817B81CC57D0408BE196E00E949E
:105A90006CBA8AE00E94844FC457DF4F9881CC587B
:105AA000D040992309F451C28092430A9092440A4B
:105AB000A092450AB092460A2CEA35EC47E25EE332
:105AC000EC966CAD7DAD8EAD9FADEC970F94471508
:105AD00060934B0A70934C0A80934D0A90934E0A40
